:020000041000EA
:10000000002008205B0100101B0100101D010010E2
:100010001101001011010010110100101101001058
:100020001901001019010010190100101F01001022
:10003000110100101901001021010010230100100E
:100040001101001011010010110100101101001028
:100050001101001011010010110100101101001018
:100060001101001011010010110100101101001008
:1000700011010010110100101101001011010010F8
:1000800011010010110100101101001011010010E8
:1000900011010010110100101101001011010010D8
:1000A00011010010110100101101001011010010C8
:1000B00011010010110100101101001011010010B8
:1000C00011010010110100101101001011010010A8
:1000D0001101001011010010110100101101001098
:1000E0001101001011010010110100101101001088
:1000F0001101001011010010110100101101001078
:100100001101001011010010110100101101001067
:10011000EFF30580103800BE00BE00BE00BE00BE7A
:1001200000BE00BEF2EB8871482600107426001055
:100130009C01001090A31AE7D3DEFFFF42012110BB
:10014000FF0100002C2C0000793512AB00201E4965
:10015000086006C881F3088810474FF050400068D7
:1001600008B10020F3E70DA40ECC002902D000F066
:1001700012F8F9E71549164A002000E001C1914242
:10018000FCD114498847144988471449884700BE60
:10019000FDE701C901C29A42FBD3704774260010E3
:1001A0001001002000080020642D0010000008202D
:1001B00000000820642D0010001008200010082006
:1001C000000000007047000008ED00E0000800207B
:1001D000140E0020FD1D001049020010F51D001036
:1001E00010B50122022442EC4040104B1048DA6363
:1001F000816A104BDFF84CC014310161DCF800005B
:100200001968014419601B680B491B0E51F8233013
:100210000A4903F5006343F4304309480B8002F0B8
:100220002FF94FF0000343EC404010BD00300B406D
:1002300000000B40E0090020040A0020100E0020FE
:1002400000000840700700202DE9F84F02243C4DC3
:1002500001F0D4FE3B4801F019FF28463A4902F06C
:100260005BF83A4B6A685C602B683949394883F01F
:100270000F03224003F0CF03036020464A6000F0E2
:1002800093F84FF0010343EC4440002545EC404017
:100290000FF29C09D9E900894FF0010A00260121DB
:1002A000042000F063F80121062000F05FF8DFF879
:1002B000B8B001210720284F00F058F8012105208F
:1002C00000F054F8CBF800501BA5D5E9004507EE27
:1002D00090AAF8EEE77A17EE900A02F0CDF84246BF
:1002E0004B4601F06DF932463B4601F069F901F0E9
:1002F000F3FA22462B4601F063F901F085F94BF839
:100300002A000AF1010ABAF5807FE0D10124134BDB
:1003100000201C64124900F007F92146002000F07B
:10032000EDF8104A936A14331361FEE7AFF30080CF
:100330006F1283C0CA2119400000000000FC9F40DA
:1003400000000840DC240010002D3101003008407E
:1003500000200840001008400000703F00200B40C3
:10036000E101001000000B40040A00204FF4807CE3
:100370000C4B00B553F8202003EB8003C00082F043
:10038000400200F1804003F5805E02F0C00200F5FB
:10039000203003F54053CEF800204160C3F800C080
:1003A00000BD00BF048003404FF0000300B543ECE4
:1003B000440043EC40004FF0050E4FF4807C0C4BA2
:1003C000C20053F8201003EB800081F0400102F1DD
:1003D000804303F5203301F0C00200F5805100F5A1
:1003E00040500A60C3F804E0C0F800C000BD00BF80
:1003F000048003400FB400B5084883B001F046FE06
:10040000049B3BB105A91846019101F0D7FC0448B3
:1004100001F03CFE012001F0E9FC00BFE8240010DF
:10042000F824001070B51646EFF3108472B6DFF8AA
:1004300048E0DEE8CF2F0123002AFAD1CEE8423F80
:10044000002AF6D1BFF35F8F012301F0070CCA0821
:1004500003FA0CF310F802C01CEA030508D14CEAB9
:10046000030C00F802C0CEE88F5F84F3108870BDE3
:100470003046FFF7BFFF00BF8B090020044A107809
:10048000431CDBB2182B28BF10231370704700BF2A
:10049000740700204FF0E022936843F0005393600C
:1004A000704700BF0021044B03F12002C3E88F1FF7
:1004B00001339342FAD17047800900204FF0E023C6
:1004C0004FF08032C3F80024C3F80424C3F8082492
:1004D000C3F80C24C3F81024C3F81424C3F8182458
:1004E000C3F81C24C3F82024C3F82424C3F8282408
:1004F000C3F82C24C3F8302462B67047012300F0FF
:100500001F029340400941B1800000F1604000F5B6
:100510006140C0F8803103607047024A203042F8E1
:100520002030704700E100E008B5EFF3108E72B69E
:10053000134BD3E8CFCF0122BCF1000FF9D1C3E8B0
:100540004C2FBCF1000FF4D1BFF35F8F0D4A103078
:100550009268DFF834C052F82020624501D0914201
:100560000BD1084A926842F82010BFF35F8F002237
:10057000C3E88F2F8EF3108808BD00F0EFFE00BF98
:100580008909002000ED00E0110100102DE9F0477D
:1005900082B0EFF3108572B6DFF8A8C1DCE8CF2F88
:1005A0000123002AFAD1CCE8423F002AF6D1BFF35A
:1005B0005F8F5E4B00F110049B6853F824205C4B66
:1005C0009A423DD08A4249D0DFF87CE1A2EB0E038B
:1005D0002F2B35D8012743099B0000F01F0003F1A2
:1005E000604303F5614387401E689A46B946C3F8E5
:1005F0008070BFF35F8FEFF30583DBB21F467BBBD9
:100600000123834022F0010003EA06088668B14214
:1006100008D181E003EB43030EEB83039E68B142F4
:1006200025D0184690F90630002BF3DAB1424ED0AF
:100630005346B8F1000F17D0C3F88091C3F800906B
:100640003A4B9B6843F82420BFF35F8F0023CCE82C
:100650008F3F85F3108802B0BDE8F0871A46EFE7B8
:100660009C42CDD000F07AFEC3F88090E8E793F981
:100670000660002E2CDB06EB46000EEB80018000AE
:100680000190C8798F68D87191F906009F600028A1
:1006900098714FEA46072EDB8988019841F30A01D9
:1006A00000EB41016FF0070008317144C01A0144AA
:1006B000C1F34A016FEAC1416FEAD14199801D49F6
:1006C000BB1908780EEB83030E709871B0E70346F0
:1006D0009FB9FF2181714BF601518180154E18465B
:1006E00037784AF6AA219F717346C01A40414143A8
:1006F000090D31709CE71049E0E71049104EC91A06
:100700000839C1F30A306FEA00506FEA105046EA28
:100710005101D98098808BE790F906600346002E3E
:10072000A9DA002FE9D1024AD8E700BF00ED00E0C6
:1007300011010010120E002001BDFFFFB2070020C2
:1007400000F8FFFF89090020780700202DE9F0411B
:10075000EFF30583DBB29E46EFF3108572B62949AD
:10076000D1E8CF2F0123002AFAD1C1E8423F002A65
:10077000F6D1BFF35F8FDFF89C8040F00106D8F818
:1007800008704AF6AA2357F82E7004461E4AA41A87
:10079000644163431B0DB7425BB21ED092F9064021
:1007A0009C4220D092F912409C4227D092F91E40E0
:1007B0009C4225D092F92A409C4208BF032413D0C2
:1007C000124A002492F800C0137080F806C0C1E8F5
:1007D0008F4F85F31088BDE8F081D8F808200C4CC5
:1007E00042F82E40ECE7002404EB440402EB8402C0
:1007F000FF2494714BF601549480E1E70124F3E760
:100800000224F1E78909002078070020120E002059
:100810001101001000ED00E0014B0B440360704734
:100820008009002070B5104C104DAC420ED2FF264E
:10083000236863B1FFF722FE01462046FFF7ECFF75
:10084000A680BFF35F8F0834AC42F1D370BDFFF7D1
:1008500015FE01462046FFF7DFFF2671BFF35F8FCD
:100860000834AC42E4D370BDF80700200008002033
:1008700010490B68EFF3108072B6D3E8CFCF012296
:10088000BCF1000FF9D1C3E84C2FBCF1000FF4D13B
:10089000BFF35F8F084A4FF0000C137809680133EB
:1008A0001370C1E88FCF80F3108840BF0020002173
:1008B000704700BF040E0020130E0020000000004F
:1008C0002DE9F04F2DED028B85B0EFF30583DBB200
:1008D000103B9A0818BF01224FF0010103F0030BEF
:1008E00018BFA94CA94B08BFA94C0BEB820253F8C7
:1008F000225001FA0BF204F541539FEDA18B0292B5
:100900005A602FE0AB88190440F19480AB79002B3A
:1009100040F0DE80B5F90860002EC0F21C816B69E2
:1009200006EB460603EBC603D3E90267B7F1FF3FC8
:1009300008BFB6F1FF3F0ED004EB8B01A36A0A6932
:10094000D21AF31A934205D30123226A03FA0BF356
:10095000134200D10E61204600F0FAFAB042B941CC
:10096000C0F2F980B5F90860029B002EE363C9DB91
:10097000D5F8149006EB460A09EBCA07BB68204677
:10098000D7F80C80019300F0E3FA019B984271EBD9
:100990000801B7DBB8F1000FC0F2C080D7E904311D
:1009A0007C4A934200F0F8807A88B5F9080092B248
:1009B00042EA0040984702460B4652EA030100F023
:1009C000AD80002B80F2CD800199B1EB020E68EB77
:1009D000030839F93A30C7E902E8002B92DB68696D
:1009E00003EB430200EBC202D2E90271BE4578EB91
:1009F000010C4FEA430285DBAC462CF8083F06E0C9
:100A000003EB430100EBC1015A00D1E90271BE457D
:100A100078EB01011A4405DB30F9323000EBC20CEF
:100A2000002BEDDA29F83A30ACF80060AB881904F5
:100A30003FF56CAF2B69EFF3108272B6D3E8CF0F9E
:100A400001210028FAD1C3E8401F0028F6D1BFF3E6
:100A50005F8F4FF6FF76A8880023296900B2AE8029
:100A6000C1E88F3F82F310889842FFF64FAF0746E8
:100A7000A1466E6905F10808B5F9083007EB470E85
:100A8000002BC44606EBCE0215DBD2E90240AA4693
:100A9000019704E036F935309446002B09DB03EB6F
:100AA000430506EBC502D2E90271BC4270EB0101BD
:100AB000F0DA5546019FACF8007036F93E7026F822
:100AC0003E30002FD8DAAB794C46002B3FF422AFF2
:100AD0000023AB71B5F90860721C33463BD06869DE
:100AE00005F1080E03E08E465A1C3FF415AF03EBE8
:100AF000430200EBC2014F889C463F0430F932307C
:100B0000F1D5664581ED028BEED0AEF80030298933
:100B1000664620F83210A5F808C0E5E739F83A3003
:100B20002B812B69EFF3108272B6D3E8CF0F01212E
:100B30000028FAD1C3E8401F0028F6D1BFF35F8F29
:100B40006B88296929F83A3000236E80C1E88F3F0D
:100B500082F31088D6E640BF05B0BDEC028BBDE83D
:100B6000F08F20460393019200F0F2F9019A039B63
:100B700010EB020E43EB01082BE700BFAFF3008040
:100B8000FFFFFFFFFFFFFFFF00800B40E409002095
:100B900000000B40C108001008460B6903919847FC
:100BA0000028BBD00399D1E9002306E738B5384BBC
:100BB0001C692CB1BDE838400A213648FFF72CBE2D
:100BC0000321354800F0B2F9334D314BDD60FFF7BA
:100BD00055FC324A4FF0504E024403202C4B4FF04C
:100BE0000F0C18701A61DEF800204FF6FF715A7072
:100BF0005A69A3F802C014834FF00204A2F84840D7
:100C00004FF00404A2F878404FF00504A2F8904099
:100C10004FF00604A2F8A8404FF00704A2F8C04025
:100C20004FF00904A2F8F0404FF00A04A2F808417E
:100C30004FF00B04A2F820414FF00C04A2F8384109
:100C40004FF0010414864FF00804A2F8D840144C69
:100C50004FF00D0E4FF00E0C9C6008249980A2F806
:100C600050E1A2F868C1A2F8600011800D4A2C6220
:100C70000D49D360FFF758FC01210320FFF73EFC2C
:100C80000A4B0A211C640348BDE83840FFF7C4BD85
:100C9000C8070020040E002000000B40800900203F
:100CA000FFFF1000E4090020C108001000200B40E5
:100CB000F0B516461F4602690346EFF3108072B680
:100CC000D2E8CF4F0121002CFAD1C2E8441F002CFA
:100CD000F6D1BFF35F8FB3F902101D69002945DB20
:100CE000D3F814E001EB41023EF832400EEBC20CA7
:100CF0005C800024C5E88F4F80F310880598354646
:100D0000CCF8100006983E46CCF81400BCF802005F
:100D1000CCE902560130C0F30E00012838BF012093
:100D2000ACF8020040EA0140D3F810C0EFF31085A0
:100D300072B6DCE8CF7F0126002FFAD1CCE8476FEE
:100D4000002FF6D1BFF35F8FB3F804C02EF832C086
:100D500099801A69C2E88F4F85F3108801211C78A9
:100D6000DA68A14002F501535960F0BD0023C5E8DF
:100D70008F3F80F310884FF0FF30F0BD034640896D
:100D8000B0EB214F3ADD58690A1402EB420210B56C
:100D9000D3F810C000EBC200EFF3108E72B6DCE89F
:100DA000CF4F0122002CFAD1CCE8442F002CF6D1F1
:100DB000BFF35F8F428889B292B28A4207D0002285
:100DC0001B69C3E88F2F8EF31088002010BD6FEAD7
:100DD00042426FEA52424280012100221869997111
:100DE000C0E88F2F8EF3108893F800C0DA680846A9
:100DF00002F5015301FA0CF1596010BD0020704753
:100E0000F0B5024685B0EFF30585EDB2002D61D156
:100E10000B46424CD4E90001994208BF90424AD0A7
:100E2000CDE902233E4BDF681E78384600F090F88B
:100E300006F1040C57F82CC0029A039BACEB000C93
:100E4000101A63EB0101604571F1000133DACDE95D
:100E5000022300F085F8029A039B824263EB0101B2
:100E6000002949DB2F492E4800910195CDE9023236
:100E7000FFF71EFFDDE90232011E3DDD2A48C4E90D
:100E80000023446A9C4246D3806A904241D324485E
:100E9000CDE90232FFF772FF2349029B486A98426C
:100EA0001CD314BF012000208B6A039A934228BFF1
:100EB00040F001000CE020BF1B49486A98420DD366
:100EC00014BF012000208B6A934228BF40F001002C
:100ED00005B0F0BD1448436A8B4202D2002005B031
:100EE000F0BD14BF01230023816A914234BF18462C
:100EF00043F0010005B0F0BD0B49486A9842EDD3BC
:100F0000C01A18BF01208B6A934228BF40F001002D
:100F1000DEE79C42BBD120BFB9E700BFC00700207D
:100F2000C80700207108001000000B4010B4054BEA
:100F3000054C064AA04214BF1846581C10BCFFF7C7
:100F400071BA00BFA809002000800B40FC240010EB
:100F50000346416A0A46986A596A8A42FAD170473A
:100F6000034B596A0A46986A596A9142FAD1704706
:100F700000000B4000B58E46154A536A9C46916AA4
:100F8000536A6345FAD1401853EB0E034FF0000249
:100F900028BF0122BAB10E4B5A6A531C08BF104633
:100FA00008D04FF0FF33184609494A6A9A42FCD3E9
:100FB0009A4207D1064B02E0596A914202D1996ADE
:100FC0008142F9D300BD024A526A9342ECD8EFE75E
:100FD00000000B4070B5044682B006200E4600F0BB
:100FE000EFF8002844D0384A3848944214BF4FF0F4
:100FF00080624FF00062364B364902601A608D689D
:1010000032EA0505FBD1304A4FF48070A21AB2FAD9
:1010100082F23149520921F81200062000F0D0F87E
:10102000C200B2FBF6F20132D10923D140260123DE
:101030006362A162256BEB0725D42346002153F898
:101040002C2F062003F5805211602563019200F0D9
:10105000B7F840F2013503218000B0FBF6F0E36AF7
:10106000019A83F0700303F07E0313602563A1648B
:1010700002B070BD4FF6FE7081421DD929464FF671
:10108000FF73164ED4E740F2013204F540531A6361
:10109000636AA26A062002EB8312019200F090F8C4
:1010A0000F4B019AA3FB00139002DB0AB0FBF3F095
:1010B0000021FFF75FFFC0E7C2F345020B4602EBDA
:1010C00081161146B4E700BF0080074000200240AF
:1010D0000030024000000240080E0020C0FF3F0028
:1010E000757B2B8F00EB400C4FEA8C0C0CF1804C85
:1010F0000CF5803C70B51E46DCF80430041FB3F5D7
:10110000803F38BF4FF48033E4B238BFCCF80430AE
:10111000012C2ED94FF40065284B0CF5405ECEF81B
:10112000005053F820E0BEF1000F17D1DCF800E0CA
:10113000012C8EEA421202F0E0020CF5805ECEF83D
:1011400000202BD94FF4006143F820604FF4803326
:101150000CF500521160CCF8043070BD5D69B5FB30
:10116000FEFE0EF1010E0EEB4E0EBEF1030EFCD292
:10117000DCE70129CED103240CF540531C60DCF8D8
:101180000830DB07FBD5DCF800300CF5805E83EA25
:10119000421303F0E003CEF80030084B0122DCF8E4
:1011A00000404C4004F00304CEF8004002FA01F184
:1011B000DCF808200A42FBD0C4E700BFAC090020DD
:1011C000014B53F820007047AC09002010B5029C79
:1011D0008E464FEA043C4CEA034C1C4BB3FBF1F344
:1011E0000168B2FBF3F4002920DB194A194B904245
:1011F00014BF4FF480424FF4004217491A6003F5C0
:1012000080531A608B6832EA0303FBD1212200F578
:1012100040530433C0F800E084601A600268002A7A
:10122000FCDA0822C0F80CC01A6010BD036803F095
:101230003F037345D9D18368C3F30B03A342D4D1D1
:10124000C36803F4EE236345CFD110BD001BB70084
:10125000008005400020024000000240012300EB16
:101260004000800000F1804000F584104160036080
:10127000704700BF4FF0000C30B5134683B00446F2
:101280000D46BCF81620002141E800F101934B0205
:1012900054BF1021042144F25220904786462A462A
:1012A0000A212046F446019B03B0BDE83040604768
:1012B0000023DB8A002242E800F2520201D410210E
:1012C00018470421184700BF002808B50EDB52B9A3
:1012D00041F020010023DB7C022B0AD002464FF4B0
:1012E0008170FFF7C7FF41F03001F3E78B06F5D5BA
:1012F000F0E702464FF49170FFF7BCFF034AD2F8C3
:101300002838002BFBD0BFF35F8F704700000E40E2
:101310000021044B044ABFF35F8F43F8041B934240
:10132000F9D170470C080E402C080E404FF42A6C7F
:101330004FF48D70054A064B0649C2F800C0D060D4
:1013400019605368002BFCDA704700BF008004402E
:1013500000A0044000B0FA00704700BF08B5014883
:10136000FFF748F82025001038B5054C054DAC4274
:1013700004D254F8043B9847AC42FAD338BD00BFBE
:1013800098240010D82400100648DFF828C0064B27
:10139000064A0749C0F800C01A608B6832EA0303A6
:1013A000FBD170470020024000300240F6FFF303FB
:1013B000000002407F3BEFEF044BDB6CB3F5004FC6
:1013C00003D14FF48022024BDA64704700001150C1
:1013D000002011504FF0E022044BD2F8881D0B433F
:1013E000C2F8883D10EE3004704700BF03033000A0
:1013F0006FF06041044B054A19609368DB4333F09A
:101400006043FAD1704700BF003002400000024044
:1014100010B545F25320FFF74BFFBDE810400346DF
:101420000420184710B545F25320FFF741FFBDE8EF
:101430001040034601201847FFF734B81349144BF6
:1014400070B55C1AA508442D2A4628BF4422114EC7
:101450009200304601F01CF8432D13D80E4A0FD0ED
:10146000C5F144003319410803EBC101C3E900226F
:1014700008338B42FAD1C30704D520F0010005449C
:1014800046F82520054B9E6070BD00BF000000108F
:1014900010010010000000201101001000ED00E01C
:1014A000002370B52B4C82B0C4F88430FFF73EFFA8
:1014B0000122294BDA63636C012BFCD10321264AFC
:1014C000244B11639C6B012CFCD10226052521467F
:1014D0000523224A22480096FFF778FE21462B4634
:1014E000204A21480095FFF771FE00220420314672
:1014F0001E4BFFF7F7FD2146284600221C4BFFF745
:10150000F1FD0022082011461A4BFFF7EBFD0022E7
:1015100009201146174BFFF7E5FD00220620114672
:10152000134BFFF7DFFD0022114B07201146FFF799
:10153000D9FD0420FFF744FE00240F4BA3FB003528
:10154000AD0CE0B229460134FFF788FE062CF8D135
:1015500002B070BD0000014000300140002F68590A
:1015600000000540008C864700800540001BB70046
:1015700080D1F008006CDC0283DE1B4386B003B42C
:1015800051FC0804CDE9020151FC0904CDE9040134
:1015900051EC0A04CDE9060103BCF047BDE8005058
:1015A0004EEC00C4BDE800504EEC01C4BDE8005054
:1015B0004EEC02C400BD000000B5FFF7DFFF02E003
:1015C00010FE30F4F8D410B541EC100443EC1124B3
:1015D00051EC040453EC0524A0FB024C5FF0000E18
:1015E000E0FB03CEE1FB02CE4CEC20440024E1FB07
:1015F00003E444EC30E480EE200451EC500410BDD0
:1016000000B5FFF7BBFF02E010FE30F4F8D441EC68
:10161000800400EE010410EE010480EE400410EEA0
:1016200013047047000000000000000000000000EC
:10163000DB60BE284A059193F4D5097F70374D7D54
:1016400066A5D83610E4104FEA58947F58F1AEF7EB
:101650008E1BC96DB8749390BA4B920187647482E3
:10166000C77A873FCF694A2C7D8D20BA21D1AE4BF6
:10167000091C673A90DF17AD8E75644E7DCED4603D
:10168000E21721270E4A7EEFFF25FEC7036681F78A
:1016900062C4CBFB479B82D6B39F4DDB6DC2F2C9C0
:1016A000D98FD1D38BFA97A7B1EE495D5E7CF9FA59
:1016B0007DCE41CFBAA494E2ECD7FE9A4257E347DD
:1016C00011CC8015174B02F01F054FF00107AF40FA
:1016D0005FEA6218A7FB00450026E7FB015603EB13
:1016E0008803D3F81090A9FB06A7D3F80C90A9FBA8
:1016F00005A8E9FB6678D3F8089009FB0688E9FBA2
:101700000578A9FB04A6D3F8049009FB0588E9FB3A
:101710000478D3F8009009FB0488BF1948F1000849
:10172000704700002816001050EA013208BF41F04F
:10173000004141F400210B00020070470BB900206A
:101740000021002240F20003C3F6F0731CF0020FE8
:101750001CBF1046194670470022002300245FF08A
:10176000004504E14DF804CD5FF0000C0CF1040CD1
:1017700002F10402FFF7A6FF98EAE879B9F1807F49
:1017800002D2BCF1400FF1D197EAE87741F2A616F8
:10179000C0F64636A9FB06A04DF21156C4F67E06E9
:1017A000A7FB06A1E9FB66010626E7FB060109FB8C
:1017B0000611DCF1200A57D421FA0CF320FA0CF2BE
:1017C00001FA0AF942EA0902A2FB0394A2FB03957B
:1017D000E3FB6345A4FB0596A4FB0597E5FB656762
:1017E000F60856EA47764FF0AA39A6FB0967D4EB0C
:1017F000070675EB45075FEA2739360B56EB0756A8
:1018000059F17F6717F14057C0B4A0FB0592A1FBC7
:101810000493E1FB6523A2FB0596A3FB0497E3FB7E
:1018200065674FF0AA39A2FB09A40025E3FB09452F
:10183000641955F100054FF08839A6FB0923B4EB74
:10184000131465F10005B0EB940061EBA501B0EB5A
:10185000857061F10001CCF58064A4F10E0400F004
:1018600082F9BDE8C0100CE0CCF58064A4F10E0450
:1018700000F079F95DF804CB002640F20007C3F6CA
:10188000F0775FEAD87868F3000C5FEA6C090FD450
:101890005FEA690906D31CF0040C57EA4C7130006A
:1018A000BDE8F0879CEA9C0C51EACC71BDE8F0875A
:1018B0001CF0040497EA4477C0B4A6E03CB500F0FD
:1018C00004F830BC03C40CC530BD11F0004C5FEA15
:1018D0005C0C5CF0004C06E05FEA517C1CF0040CF0
:1018E00001E05FF0020CC1F30A53A3F2FF32B2F53C
:1018F000806F3FF419AF12F1200FFFF61FAF0123E5
:1019000063F31F512DE9F04702F10C02FFF7DAFEF5
:101910005FEA987444F10004A8EB84780CEB440C63
:101920004CEAD87C97EAE87798EAE878B8F5800F2F
:10193000FFF418AF41F2A619C0F64639A8FB09A07A
:101940004DF21159C4F67E09A7FB09A1E8FB690114
:101950005FF00609E7FB090108FB0911B1F1007FFF
:10196000FFF4FAAECA0E7C4B03EB02133CCB801A99
:10197000994110D45FEA6C0636D476101CD200F080
:101980006CF800F0AFF800F0ECF89CEA9C0C51EA1F
:10199000CC71BDE8F0875FEA6C0649D4761017D2A7
:1019A00000F058F800F0ACF800F0D8F89CEA9C0C75
:1019B00051EACC71BDE8F08700F04FF800F0AFF8C5
:1019C00000F0CCF81CF0040C51EA4C71BDE8F08733
:1019D00000F040F800F0B2F800F0C3F81CF0040C7E
:1019E00051EA4C71BDE8F08700F037F8FCB400F024
:1019F00096F800F0B3F81CF0040491EA4471FCBCC2
:101A000003B400F06FF800F0ACF89CEA5C0494EAD0
:101A10009C0491EAC4711CF0020F1DBF02460B46E4
:101A200003BC0CBC1CF0804491EA4401BDE8F08783
:101A300000F010F8FCB400F081F800F092F81CF00F
:101A4000040491EA4471FCBC03B400F059F800F0BE
:101A500085F8DAE7404261EB4101A1FB0167A0FB99
:101A600001237F084FEA3606F21847F10003A3FB73
:101A70000076E2FB01760027E3FB01674FF0553863
:101A8000A6FB08964FF00009E7FB086916EB09066C
:101A900059F10007861B71EB07074FEA033040EA54
:101AA0001250A0FB0009E9FB0809A9FB01084FF04F
:101AB0003330A8FB000858FB11FA4AF6AA20C2F6F8
:101AC000AA2060FB1A99B2EB491273EBD9635AFB57
:101AD00011FA4FF0C3606AFB108816EB481657EBFB
:101AE000D8677047A2FB04804FF00001E3FB0401BC
:101AF000A6FB0583E7FB0534181A64EB0101704768
:101B0000A2FB04804FF00001E3FB0401A6FB058368
:101B10006442E7FB0534181844EB01017047A2FB4F
:101B200005804FF00001E3FB0501A6FB04836D4235
:101B3000E7FB0435181845EB01017047A2FB05804F
:101B40004FF00001E3FB0501A6FB0483E7FB04352E
:101B5000181A65EB01017047B41B0010404261EB9D
:101B6000410140F2F334B1FA81F20C2A0CD2153261
:101B700011FA02F3C2F12002D04021FA02F122440C
:101B8000584141EB0251704769B1C2F12B0230FA62
:101B900002F3C2F12002914090401943A4EB0202EB
:101BA00001EB0251704701004FF00000A4F1200446
:101BB000D9D170470B5C7325A974F50329B5FA01D7
:101BC0000015FC7FEB2FAA0054D9440CC8D2210683
:101BD0001F60DA7F3663E842CFD3D9133C5EEA094F
:101BE000F0889D7F2FC46D04D9860A1C1F17FE0D37
:101BF000D09E3B7FA79B50EC3EF5EB23BCE7E61164
:101C0000C7EFBD7ED21C9C03B212F12B46F5DC154A
:101C100049771E7ECA057A3DF493F23314C0CB197E
:101C20009CAC5F7DA0A0EF7A1D32193C1D22C61D21
:101C30002F2F7D7CB50FFB1270EF5044530CC12148
:101C40003522787B5C8D6B4745A0F14B18DC6A250B
:101C500016AD687AC14069576DD9EA5339163629ED
:101C60003C2D2F79DFEA4ED38942B35BD639E02C85
:101C70002526E0776950EA31D9071164C0D3C43012
:101C800070625876CB5667F3B3A2FD6B1C7E683446
:101C9000227AC7740EED7A2F3175E073CCE7FA37EC
:101CA00027111C73C08EC4FC0E79147C0EA7A33BB5
:101CB0008ECD417113B7043B8F7B5483D489D23EC0
:101CC000EBD8856F9A365B13D96F0B8CD4EA9442AC
:101CD000A3EF516D5F52CA4A26D33994706E0A46FB
:101CE0004005236B8340C441340B0E9C3DB04849F2
:101CF00007EFF168BF086DA3FD6179A485F2B14CCF
:101D00009D847A663616F8C8D247E5AB1E22A24FEC
:101D10002F623664ADC9C8D0E1ADFEB32470C352A2
:101D200086AFA461730E73646A35FEBB28F0C55597
:101D3000A3A3025FC6A58CB055B912C40892BA58C5
:101D4000A394415C90005354372DB0CB19F46E5BD3
:101D5000D88E9359367C8DA16E3CAAD325022E5E77
:101D6000FC32AF56D0C7A248F619FFDB3253F360FE
:101D70007EED9253949AAD7AE1AD22E4CADF8E6390
:101D8000C72B7350FF15EF19BD85FBEBBB18FA6528
:101D9000C7615C4DBD960F7E494B4CF4F7816F686F
:101DA000E617024AEB09EF1DFDBD4DFCC4D2B26A35
:101DB00013E4B44600B9704700F026B910B5094ADB
:101DC00084B014684CB1034600914FF0FF3203A970
:101DD0000548A047012004B010BD00F057F9204687
:101DE00004B010BDDC090020B51D001000BEFDE7E9
:101DF000704700BF08B5FFF7F9FF00BF38B5064CC4
:101E0000064DFFF7B1FAAC4204D254F8043B9847B0
:101E1000AC42FAD338BD00BFD8240010DC24001037
:101E2000036808461146184770B505460846697D9F
:101E300082B000294FD0002A25DD037814460A2BF2
:101E4000064622D0012C4FF0000E0DD03246012361
:101E500012F801CF1946BCF10A0F03F1010320D09B
:101E60009C42F5D1744505DD2B68A4EB0E0106EB11
:101E70000E009847311911F8013CA3F10D03B3FA94
:101E800083F35B092B7502B070BD2B7D002BD9D17C
:101E900002212B6813489847012CEBD04FF0010E1C
:101EA000D4E712F8010C0D28DAD08E4506EB0E00AF
:101EB000A1EB0E0105DACDE900322B689847DDE988
:101EC0000032CDE9003202212B6806489847009B7A
:101ED000019A9E46C4E711462B6802B0BDE87040E7
:101EE000184700BF142600102DE9F04782B0904635
:101EF0001C460D460746FFF733F84FF0FF3C6FF0E6
:101F000000462E4A821841F10003944576EB030106
:101F10003CBF624633462A4800F0AAFA6B1C824650
:101F200040D00CB3274E284B1C68B4B1B8F1000F59
:101F30001CD1DFF89C8001E0246974B12368002B78
:101F4000FAD0D8F800300BB19C42F5D120462A4691
:101F50003946B0472469002CF0D1BAF1000F26D1E0
:101F6000284602B0BDE8F087184EDCE74FF00A09BA
:101F7000DFF85C8002E02469002CEED02368002B9F
:101F8000F9D0D8F800300BB1A342F4D12A46394633
:101F90002046B047012220460DF107018DF8079039
:101FA000B047E8E7384600F035FA0546B9E7044897
:101FB00000F06AFA284602B0BDE8F08740420F0000
:101FC000F8070020291E0010D4090020211E00104F
:101FD000D8090020084A136823B90AE003F1100267
:101FE0001B6933B18342F9D129B9186910601961AD
:101FF000704701B110607047D409002008B500F0A7
:102000003FF9012008BD00BFF0B583B006468DF84A
:102010000700FEF7A5FF4FF0FF356FF00044174AA9
:10202000821841F10003954274EB03013CBF234643
:102030002A46134800F01CFA124B07461C689CB154
:10204000114D01E024697CB12368002BFAD02B6884
:102050000BB19C42F6D1204601220DF10701FFF79A
:10206000E3FE2469002CEFD117B9304603B0F0BD70
:10207000034800F009FA304603B0F0BD40420F00BB
:10208000F8070020D4090020D809002038B50446FC
:1020900000F0C0F9012305461A4620462946FFF7FD
:1020A00023FF084B1C682CB163682BB19847246947
:1020B000002CF9D1284638BD2469002CF4D12846DB
:1020C00038BD00BFD4090020B1F1000C1EDD104A5C
:1020D000104B126810B5D31AB3FA83F30D24DFF84E
:1020E00038E05B09411E3EF913E08C4411F8010F02
:1020F000864506D093699B06FCD461451060F5D1F6
:1021000010BD93699B06FCD41460F3E7704700BFD1
:102110000C0E002000800740080E0020244BB1F177
:10212000000C00B5D3F800E02FDD0021214B013871
:102130001A689369DB0618D401319369DB06FCD475
:1021400013688C4500F8013FF3D1BEF1000F09D0B0
:1021500050211346916353F8342F02F0380203F5EF
:1021600080531A606146084600BDBEF1000F09D0D9
:1021700050201346906353F8342F02F0380203F5D1
:1021800080531A6081B1084600BDBEF1000F0BD02C
:10219000084B50211A681346916353F8342F02F00C
:1021A000380203F580531A606FF00201DBE700BFCD
:1021B000A00900200C0E0020054B1B6833B1002144
:1021C000044A05481268006891631847704700BFC9
:1021D000A00900200C0E0020A4090020024B1A6860
:1021E00093691B07FCD470470C0E002030B51F4DBF
:1021F0001F4AD5F800C01F4C8E46944514BF2122BB
:102200002222216883B010B1A9B103B030BD0029EA
:10221000FBD0CCF838000146019010460092FEF742
:102220006DF915490098FEF7B1F9019B134A236037
:10223000136003B030BD114B20600F49104600926F
:10224000C3F800E0FEF770F901210098FEF756F997
:102250002A6850211346916353F8342F02F0380254
:1022600003F580531A6003B030BD00BF0C0E002090
:1022700000800740A0090020B9210010A409002017
:1022800010B50E490E4C0F480F4A104B00782160D4
:102290000020022112781B78FEF768F80221012045
:1022A000FEF764F84FF4E1312068FEF793FEBDE8D5
:1022B000104001210648FFF78DBE00BF0000074017
:1022C0000C0E0020702600106C26001068260010EE
:1022D000E00700200B4B10B5DB6ADB0709D40A4B83
:1022E0000A4C0021DC620A48FEF744FE094BDC621E
:1022F00010BD00220549074B4FF0FF30D96211464F
:10230000FEF7E2FF00001040002010400100FE5ADE
:10231000400D0300003010403A4B2DE9F043984245
:1023200014BF4FF480234FF400230546364E374C3C
:10233000374A83B033602360946833EA0404FBD1E6
:102340004FF0020906200191FEF73AFFAE464A46D9
:102350005EF8046F01990EF540574FEA4128434655
:102360004FEAD15C1640C7F8009008E013EB080371
:1023700002F102024CEBD15CB2F5807F03D09842AF
:1023800074EB0C09F2D24FF48073C2EB022C01E023
:10239000012B34D0B0FBFCF841459946ACEB020C64
:1023A00003F1FF33F4D209FB02F91C0202212B4690
:1023B000B0FBF9F04FF0030C2A612A680EF5005EBD
:1023C000624005F5805802F47F42C8F80020CEF83C
:1023D00000606C68396053F8242B0C4082F00702CF
:1023E00002F0CF0203F50053C8F80020CEF80040F9
:1023F000C3F800C0CEF8001003B0BDE8F0839146EA
:10240000D4E700BF008008400020024000300240B6
:102410000000024020F0030110F00300C0F10000B2
:1024200051F8043B00F1040C4FEACC0C6FF00002B1
:102430001CBF22FA0CF213434FF0010C4CEA0C2C97
:102440004CEA0C4CA3EB0C0222EA030212EACC1277
:1024500004BF51F8043B0430F4D0C2F1000102EA99
:102460000102B2FA82F2C2F11F0200EBD200704701
:102470005FF800F0F10100205FF800F0C9050020CE
:102480005FF800F0710200205FF800F029020020E0
:102490005FF800F079060020111400108913001075
:1024A000B9130010A1140010F11300101113001043
:1024B00039140010FD120010250800103D14001002
:1024C000AD0B00105913001025140010D513001087
:0C24D00095040010BD040010D52200107F
:1024DC0048656C6C6F2C2044414321000A2A2A2A3F
:1024EC002050414E4943202A2A2A0A0000000000AD
:1024FC00486172647761726520616C61726D202530
:10250C006420616C726561647920636C61696D65CE
:10251C00640000004861726420617373657274001A
:10252C0052656C6561736500626F6F74325F7732F0
:10253C003571303830000000322E332E3000000060
:10254C007069636F32000000417564696F5F546994
:10255C006D65725F496E746572727570745F444418
:10256C005300000053657020203320323032360087
:10257C005541525420737464696E00005541525495
:10258C00207374646F7574005541525420737464D5
:10259C00696E202F207374646F757400646F75629C
:1025AC006C65207265736574202D3E20424F4F542C
:1025BC0053454C0006005250D3F075422C250010A8
:1025CC0006005250E182887F3425001006005250DC
:1025DC00ABB360534425001006005250BBFF3CB611
:1025EC004C25001006005250861C03025425001086
:1025FC00060052505422A29D702500100500525026
:10260C00DE65F468782D00100D0A000006005250AB
:10261C0053B4F4A19425001008005250120000008D
:10262C0008005250921000000600525053B4F4A10E
:04263C00A8250010BD
:0826400038E0FF0F010000006B
:10264800C0250010CC250010D8250010E425001066
:10265800F0250010FC250010082600103426001074
:0C2668002C26001024260010182600105C
:10267400034600B50268EFF3108C72B6D2E8CFEFD0
:102684000120BEF1000FF9D1C2E84E0FBEF1000FD8
:10269400F4D1BFF35F8F93F90420002A09DB01B161
:1026A4000A60002000221B68C3E88F2F8CF3108877
:1026B40000BD4FF05042126801201A71F2E700BFCA
:1026C4004FF050412DE9F8431F460B680446164667
:1026D40000259946DFF874802368EFF3108272B600
:1026E400D3E8CF0F01210028FAD1C3E8401F002806
:1026F400F6D1BFF35F8F94F904302168002B1BDB04
:1027040098F80030DBB2C1E88F5F82F3108898F844
:1027140000209A4208D03046394600F0D5FA002805
:10272400DAD00020BDE8F88320BF3046394600F0F7
:10273400CBFA0028D0D0F4E7002384F80490C1E851
:102744008F3F82F310880120BDE8F883130E002028
:1027540070B582B001A9064614461D46FFF788FFEE
:1027640038B94FF050439DF9042093F900309A4250
:1027740001D102B070BD22462B46304602B0BDE8FE
:102784007040FFF79DBF00BF0368EFF3108172B67E
:10279400D3E8CFCF0122BCF1000FF9D1C3E84C2F0D
:1027A400BCF1000FF4D1BFF35F8F4FF0FF0C074A69
:1027B40080F804C013780133137000230268C2E860
:1027C4008F3F81F3108840BF704700BF130E002075
:1027D40084466AB3023900B501EB420EDCF80C30D2
:1027E4009B07FBD531F8023F8E45CCF80830F5D174
:1027F400DCF80C30580705D5DCF80830DCF80C3070
:102804005807F9D4DCF80C30D90606D5DCF80C30BE
:10281400D906F7D401E0DCF80830DCF80C305B07AB
:10282400F9D401231046CCF8203000BDDCF8083080
:10283400DCF80C305807F9D4DCF80C30D90606D58E
:10284400DCF80C30D906F7D401E0DCF80830DCF809
:102854000C305B07F9D401231046CCF820307047C4
:1028640081F0004102E000BF83F0004330B54FEA3D
:1028740041044FEA430594EA050F08BF90EA020FAA
:102884001FBF54EA000C55EA020C7FEA645C7FEA3D
:10289400655C00F0E2804FEA5454D4EB5555B8BF60
:1028A4006D420CDD2C4480EA020281EA030382EAD1
:1028B400000083EA010180EA020281EA0303362D63
:1028C40088BF30BD11F0004F4FEA01314FF4801C36
:1028D4004CEA113102D0404261EB410113F0004F48
:1028E4004FEA03334CEA133302D0524263EB4303FF
:1028F40094EA050F00F0A780A4F10104D5F1200E9D
:102904000DDB02FA0EFC22FA05F2801841F10001F7
:1029140003FA0EF2801843FA05F359410EE0A5F1CB
:1029240020050EF1200E012A03FA0EFC28BF4CF0FC
:10293400020C43FA05F3C01851EBE37101F00045B2
:1029440007D54FF0000EDCF1000C7EEB00006EEBBF
:102954000101B1F5801F1BD3B1F5001F0CD3490849
:102964005FEA30004FEA3C0C04F101044FEA4452A0
:1029740012F5800F80F09A80BCF1004F08BF5FEA27
:10298400500C50F1000041EB045141EA050130BD07
:102994005FEA4C0C404141EB0101013C28BFB1F519
:1029A400801FE9D291F0000F04BF01460020B1FA64
:1029B40081F308BF2033A3F10B03B3F120020CDA37
:1029C4000C3208DD02F1140CC2F10C0201FA0CF015
:1029D40021FA02F10CE002F11402D8BFC2F1200C7A
:1029E40001FA02F120FA0CFCDCBF41EA0C01904030
:1029F400E41AA2BF01EB0451294330BD6FEA040479
:102A04001F3C1CDA0C340EDC04F11404C4F1200263
:102A140020FA04F001FA02F340EA030021FA04F375
:102A240045EA030130BDC4F10C04C4F1200220FACC
:102A340002F001FA04F340EA0300294630BD21FA0A
:102A440004F0294630BD94F0000F83F4801306BFD0
:102A540081F480110134013D4EE77FEA645C18BFC4
:102A64007FEA655C29D094EA050F08BF90EA020F5B
:102A740005D054EA000C04BF1946104630BD91EA53
:102A8400030F1EBF0021002030BD5FEA545C05D156
:102A94004000494128BF41F0004130BD14F5800495
:102AA4003CBF01F5801130BD01F0004545F0FE4109
:102AB40041F470014FF0000030BD7FEA645C1ABF3E
:102AC400194610467FEA655C1CBF0B46024650EA75
:102AD400013406BF52EA033591EA030F41F40021A1
:102AE40030BD00BF90F0000F04BF0021704730B527
:102AF4004FF4806404F132044FF000054FF00001FC
:102B040050E700BF90F0000F04BF0021704730B5BC
:102B14004FF4806404F1320410F0004548BF404291
:102B24004FF000013EE700BF42004FEAE2014FEAE6
:102B340031014FEA02701FBF12F07F4393F07F4FC1
:102B440081F06051704732F07F4208BF704793F0C4
:102B54007F4F04BF41F40021704730B54FF46074D7
:102B640001F0004521F000411CE700BF50EA0102DA
:102B740008BF704730B54FF000050AE050EA010283
:102B840008BF704730B511F0004502D5404261EBF3
:102B940041014FF4806404F132045FEA915C3FF434
:102BA400D8AE4FF003025FEADC0C18BF03325FEAD1
:102BB400DC0C18BF033202EBDC02C2F1200300FA82
:102BC40003FC20FA02F001FA03FE40EA0E0021FAA7
:102BD40002F11444BDE600BF844641EA000313F049
:102BE400030349D1403A23D30B6803604B68436025
:102BF4008B688360CB68C3600B6903614B69436175
:102C04008B698361CB69C3610B6A03624B6A43625C
:102C14008B6A8362CB6AC3620B6B03634B6B436344
:102C24008B6B8363CB6BC36340304031403ADBD260
:102C340030320BD30B6803604B6843608B6883604E
:102C4400CB68C36010301031103AF3D20C3205D384
:102C540051F8043B40F8043B043AF9D2043208D05A
:102C6400D2071CBF11F8013B00F8013B01D30B88CC
:102C740003806046704700BF082A13D38B07B1D086
:102C840010F00303AED0C3F10403D21ADB071CBF58
:102C940011F8013B00F8013BA4D331F8023B20F8C2
:102CA400023B9FE7043AD9D3013A11F8013B00F8FB
:102CB400013BF9D20B7803704B7843708B788370A7
:102CC40060467047000000005FF800F0010E00103D
:102CD40074931804100000000000000000000100BC
:102CE40000000000000000000000020000000000DE
:102CF40000000000000003000000000000000000CD
:102D04000000FF000000000001B5486801318E4654
:102D14000047704609380149884701BD4D07001036
:102D2400FFFFFFFFFFFFFF7F000000000000000027
:102D34000000000000000000000000000008002067
:102D4400C9200010DD2100101D210010ED2100100C
:102D5400000000000001000000000000000000006E
:102D6400D3DEFFFFFE010000FF010000D4D3FFFF0C
:042D7400793512ABF0
:040000051000014D99
:00000001FF
