:020000041000EA
:1000000000B5324B212058609868022188439860DF
:10001000D860186158612E4B002199600221596106
:100020000121F02299502B49196001219960352056
:1000300000F044F80222904214D00621196600F024
:1000400034F8196E01211966002018661A6600F04E
:100050002CF8196E196E196E052000F02FF8012189
:100060000842F9D1002199601B49196000215960AB
:100070001A491B48016001219960EB211966A021F2
:10008000196600F012F800219960164914480160C1
:100090000121996001BC002800D000471248134993
:1000A000086003C880F30888084703B5996A0420EC
:1000B0000142FBD001200142F8D103BD02B5186610
:1000C0001866FFF7F2FF186E186E02BD00000240BE
:1000D000000000180000070000035F00212200005C
:1000E000F4000018222000A00001001008ED00E03C
:1000F00000000000000000000000000074B24E7A12
:1001000000200420F7010010CB010010CD010010E9
:10011000C9010010C9010010C9010010C901001077
:10012000C9010010C9010010C9010010CF01001061
:10013000C9010010C9010010D1010010D301001045
:10014000C1010010C1010010C1010010C101001067
:10015000C1010010C1010010C1010010C101001057
:10016000C1010010C1010010C1010010C101001047
:10017000C1010010C1010010C1010010C101001037
:10018000C1010010C1010010C1010010C101001027
:10019000C1010010C1010010C1010010C101001017
:1001A000C1010010C1010010C1010010C101001007
:1001B000C1010010C1010010C1010010C1010010F7
:1001C000EFF30580103800BE00BE00BE00BE00BECA
:1001D00000BE00BEF2EB8871802F0010AC2F001023
:1001E0003802001090A31AE700201E49086006C8D4
:1001F00081F3088810471C480068002801D00020BF
:10020000F3E70DA40ECC002902D000F012F8F9E7B4
:100210001649174A002000E001C19142FCD115495E
:100220008847154988471549884700BEFDE701C939
:1002300001C29A42FBD37047AC2F0010D0000020BF
:10024000F0020020CC310010000004200000042047
:10025000CC31001000100420001004200000000029
:100260007047000008ED00E0000000D0F002002020
:10027000D80A002019270010E902001011270010E9
:1002800070B5D02404250122104B240665611A6044
:100290000F4A1048936A143313610F4B19680F4BC0
:1002A0001A6852181A601B680D4A1B0E9B009A5858
:1002B00080231B01D218C0230A499B01134301224A
:1002C0000B8002F075FDA56170BDC046347005401D
:1002D0000040054000C0034038020020B006002066
:1002E000C8060020D40A002070B5304C02F00CFB88
:1002F0002F4802F059FB20002E4902F095FC022203
:100300002D4963680A60216813400D325140C032A4
:100310000A402A4902200A60294A8026136000F018
:1003200079F8D02304221B065A6201219A61042025
:1003300000F058F80121062000F054F801210720B0
:1003400000F050F80121052000F04CF800230124B2
:100350001C4D76002B60200002F01AF902F03AF9E9
:10036000194A1A4B01F0D7F90022194B01F0D3F9C1
:1003700001F018FA174B002201F0CDF901F0D8F97D
:10038000A3000134E850B442E5D10122124B002011
:100390001A60124900F0ECF80121002000F0D6F8B4
:1003A0000F4A936A14331361FEE7C04600C003404E
:1003B000202E0010002D310104F0034000D0034036
:1003C00004E00340C80600206F1283C0CA21194010
:1003D0000000703F00FC9F40386005408102001023
:1003E0000040054010B54024074A83009A1812685F
:1003F000C0005440C0222240044C1B191A60044B18
:10040000C018416010BDC04604C0014004D0014086
:10041000004001400123D022834012069362936181
:10042000084A83009A1811684022514080320A40DD
:100430000549C0005B181A60044BC01805234360CF
:100440007047C04604C0014004D001400040014054
:100450000FB400B5084883B002F0A6FA049B002B45
:1004600007D005A91800019102F036F9034802F0FF
:100470009BFA012002F048F92C2E0010902E00105B
:1004800070B58C461600EFF3108472B60F490B68F6
:10049000002BFCD0BFF35F8F6346DB08C518072233
:1004A000C05C63461A40012393401A000240034295
:1004B00007D118432870BFF35F8F0A6084F3108858
:1004C00070BD61463000FFF7C3FFC0462C0100D06D
:1004D000044A1078431CDBB2172B00D91023137089
:1004E0007047C0463C0200200021044B044ABFF381
:1004F0005F8F02C39342FAD17047C046000100D01B
:10050000800100D0084B094A1360094A1360094A68
:100510001360094A1360094A1360094A1360094AC3
:100520001360094A136070478080808000E400E017
:1005300004E400E008E400E00CE400E010E400E083
:1005400014E400E018E400E01CE400E01F2318407D
:100550001E3B8340002905D0C021044A4900535066
:1005600013607047802201498B50FAE700E100E0F8
:1005700010B5EFF3108C72B60F4A1368002BFCD045
:10058000BFF35F8F0D4B10309B6880001B580C4AE7
:10059000934201D099420CD1084B9B681950BFF38C
:1005A0005F8FBFF35F8F0022034B1A608CF31088BC
:1005B00010BD00F021FFC046240100D000ED00E096
:1005C000C1010010F0B5DE4657464E464546E0B53F
:1005D00083B0EFF3108972B65D4A1368002BFCD02C
:1005E000BFF35F8F5B4B5C4E9A68030010339C0037
:1005F00012599846B2423BD08A424CD0574FBC4623
:10060000D71B2F2F34D8564B1F271D680740AA46EB
:100610000125BD4080270195DD51BFF35F8FEFF3CA
:100620000585AB46002D38D101231D0085402800EB
:1006300055460540100098438768AA46B94208D13C
:100640007CE073009B199B0063449F68B9422DD0E6
:10065000180006268657002EF3DAB9424CD05346CE
:10066000002B1ED0C0213E4B019849005850186005
:10067000384B9B681A51BFF35F8FBFF35F8F002227
:10068000334B1A6089F3108803B0F0BCBB46B24606
:10069000A946A046F0BD3200EAE7A845C4D000F064
:1006A000ABFE80232E490198C850E1E70627DF57AB
:1006B000002F22DB7900C81985002E006644B0683F
:1006C0009860F079D871062030569871002826DBA2
:1006D0006046B688C01A7605361576198019000569
:1006E000204E400D30439880CB191F499B0008785D
:1006F000634498710F70B2E703005946002910D186
:10070000FF318171194981801748654601789971D7
:1007100017495B1B5B415943090D01709FE7134863
:10072000E1E714491448C91A08394E02760D3043DE
:100730009880124849080143D98090E70627C75797
:100740000300002FB6DA59460029EAD13200DBE770
:10075000240100D000ED00E0C101001040020020A3
:1007600000E100E000E0FFFFD60A002001BDFFFF2E
:10077000AAAA00007A02002000F0FFFF00F8FFFFA5
:100780000123034370B59C46EFF30581EFF3108519
:1007900072B6214A1368002BFCD0BFF35F8F1F4B4A
:1007A00004001F4AE41A64416243120D1D4C890083
:1007B000A66852B2765866451CD006215956914219
:1007C0001CD012215956914222D01E2159569142D5
:1007D00020D02A2159560324914210D0124B197867
:1007E0001A708171BFF35F8F00220B4B1A6085F383
:1007F000108870BDA3680D4C5C50EFE700246100C9
:10080000091989005B18FF21997109499980E5E769
:100810000124F4E70224F2E7240100D04002002082
:10082000AAAA000000ED00E0D60A0020C1010010D5
:1008300001BDFFFF024BC918890001607047C04627
:100840004000003470B5114C114DAC420FD2FF2660
:100850002368002B0CD0FFF73BFE01002000FFF7C0
:10086000E9FFA680BFF35F8F0834AC42F0D370BDC0
:10087000FFF72EFE01002000FFF7DCFF2671BFF31B
:100880005F8F0834AC42E3D3F1E7C046E8020020B2
:10089000F00200200A4B1968EFF3108072B60A6864
:1008A000002AFCD0BFF35F8F1B68BFF35F8F00226D
:1008B0001A6080F3108840BF002000217047C046B6
:1008C000C80A0020F0B5DE4657464E464546E0B51C
:1008D00085B0EFF3058303221A40B34B91005F58B4
:1008E000012393409B4602925A468846AF4B1A60BA
:1008F000AF4B03935B46AF4843630823FE5E002E75
:1009000037DABB881BB2002B00DBA4E0BB79002BDD
:1009100000D0E5E00823F95E002920DB4B007A696E
:100920005B18DB00D3189D68DC686B1C00D104E108
:10093000A04801004144826A0B69AE1A9B1A9E428C
:1009400015D30123026A029883401A420FD09948B6
:1009500000F0D6FA8C4202DCCCD18542CAD940BF25
:1009600005B0F0BCBB46B246A946A046F0BD0D613D
:10097000EDE77A69730091469B19DB0099444B4679
:100980009C68DD6800F0BCFA8D42BADC00D1F6E06C
:10099000002D00DADBE04A464B4652691B6992465D
:1009A000039A934200D1CCE04A460821785E5288EF
:1009B0000004514610439847009001910099019A14
:1009C0000B00134300D1C2E013000A00002B00DB30
:1009D000D9E020002900801A99414B469860D960DF
:1009E00000229B5E002B00DA8BE75D007C69EA1831
:1009F000D200A21800949468D268A2468A4200DD10
:100A00007FE702D1844200D97BE70824A4463B81DA
:100A1000BC44009C00972F006546B4463E0006E0AB
:100A20005E00F218D200A2189768D268BA468A42CD
:100A300007DC00D1B4E0F318DB00E518E35E002B1F
:100A4000EEDA66464A46009F13802E80BB881BB2B2
:100A5000002B00DA5AE73A69EFF3108172B6136897
:100A6000002BFCD0BFF35F8F0123BE885B42BB80AD
:100A700036B23B69BFF35F8F00221A6081F31088A2
:100A8000002E00DA42E73B0008333A0099467D69C0
:100A900073009B190824115FDB004846EB180029FE
:100AA00013DB9C680093A446DC6806E0A34240D0B8
:100AB0000023F95E3800002906DB4F007F18FF0095
:100AC000EF19FB68A342F1DD009B068000201E5E4B
:100AD0001980002EDCDA1700BB79002B00D119E752
:100AE0000023BB710823F95E4B1C00D137E73D00A2
:100AF0000835AC467C6903E084464B1C00D109E70D
:100B00004B005B18DB00E0180A00E15E43881BB273
:100B1000002BF1DA01256D42EE178560C6600825CD
:100B20007B5F9342E9D0634619803B8903803A8119
:100B3000E3E7BB686345BBD9C6E7631C00D0F7E6B3
:100B400005E7534650461B699847002823D14B467A
:100B50001B883A693B81EFF3108372B61168002954
:100B6000FCD0BFF35F8F49467A880A803A697E805D
:100B7000BFF35F8F0021116083F31088C1E68442C8
:100B800000D805E7BDE60B4800F0BAF9009B019CD0
:100B9000C018614121E753460CCB009201930DE749
:100BA000824500D847E74CE7B40600203C7005407A
:100BB000C50800100040054070B52D4C2569002D7A
:100BC00004D00A212B48FFF735FE70BD2A4E0321C1
:100BD000294800F08BF9E660FFF77AFC274B0322E7
:100BE000C018D02322701B061B6801216370244BA0
:100BF0008000A3600F232061022063806369494263
:100C0000A18019800231198647311D83585218314D
:100C10005A5275325C399952183201319952183250
:100C200001319952183201319952083518329D52CA
:100C30000231183299521832013199521832013169
:100C400099521832013199521832013199521832A1
:100C5000013199520B4B0C49DC6001303562FFF7D2
:100C600087FC01210320FFF771FC084B1D60A8E7FA
:100C700090020020C80A00200040054040000034D7
:100C8000FFFF1000B4060020C508001038600540C2
:100C900070B582B00092019301000269EFF31084F5
:100CA00072B61368002BFCD0BFF35F8F0223C85EBF
:100CB0000D6900283FDB4A69430016001B18DB0062
:100CC000D218F35A4B80BFF35F8F00232B6084F35D
:100CD0001088069B1361079B5361009B019C9360E6
:100CE000D460538801335B045B0C1D1C002B20D0A7
:100CF000ACB20304558023430D69EFF3108C72B638
:100D00002C68002CFCD0BFF35F8F8C881480888007
:100D10000A69BFF35F8F002010608CF310880A7897
:100D200001309040CA68084952181060180002B09B
:100D300070BD0125DCE7BFF35F8F00232B6084F3D8
:100D40001088013BF2E7C0463C20000010B5438903
:100D50000A1493421ADD53009B184269DB00D31832
:100D60000469EFF3108C72B62268002AFCD0BFF33E
:100D70005F8F5A88090494B2090C8A4208D003692B
:100D8000BFF35F8F00221A608CF31088002010BD23
:100D9000094A22435A80012302698371BFF35F8F9E
:100DA000002111608CF31088027804499340C268D6
:100DB000012052181360EAE70080FFFF3C2000008A
:100DC000F0B5CE46474680B504000D0085B0EFF380
:100DD00005838946002B32D1404E336883422AD0A6
:100DE0003F4FFB683A7898461800039200F088F865
:100DF000039A131D42469B009B5822001B1A9C46D7
:100E00002B00121A8B411900002310008B4225DCA5
:100E100022D020BF334B586A48452BD3401B9A6AD7
:100E2000431E98410023A2425B41184305B0C0BC59
:100E3000B946B046F0BD73688B42D1D1E9E7294984
:100E400000204B6AAB42F1D38A6A5B1B591E8B416F
:100E5000A24240411843E9E78445DAD900F058F846
:100E600022002B00121A8B41002B05DA1D4A536A0F
:100E70004B4529D20020D9E7002301931A4B2200C9
:100E8000009338002B00FFF703FF0028EEDD154B21
:100E900030C65A6A4A4515D39B6AA34210D3010053
:100EA0003800FFF753FF0F4A0020536A4B45BDD36C
:100EB000926A5B1B591E8B41A24240411843B5E721
:100EC0004A45ECD120BFEAE70020926A5B1BA242B0
:100ED00040415A1E93411843A8E7C04688020020AB
:100EE00090020020004005409508001010B5024A0D
:100EF0000248FFF7C5FA10BD3C2E0010780600200E
:100F00000300416A0A00986A596A8A42FAD1704716
:100F1000034B596A0A00986A596A9142FAD170479C
:100F20000040054070B505000E00184A536A1900CC
:100F3000946A536A8B42FAD1200019002C003500C4
:100F400024184D41AB4216D813D0104B2A005B6ACF
:100F50009D4203D90D494B6A9342FCD3934207D17A
:100F60000A4A02E0516A994202D1916AA142F9D338
:100F700070BDA042E9D9054B5B6A1C005A1CEFD03A
:100F8000012201246442E5175242E3E70040054094
:100F9000F8B5040006200D0000F06EF9002843D0DB
:100FA000364B3749E3185A1E934180225B429B0D12
:100FB00012049B059B18334A1360334A13601800D0
:100FC0000A689043FBD12D4B304AE31859424B41FC
:100FD00080215B0049000620995200F04DF929005C
:100FE000C00000F033FB0130C3091ED140270122AD
:100FF0006262A362266BF30722D4E36A244B0620C5
:10100000E51800232B60266300F036F939008000D4
:1010100000F01CFB7023E26A5A400E3313402B6031
:101020001C4B23630323A364F8BD1B4A93421DD9C1
:1010300000231A4A1A4F6262A362266BF307DCD5BB
:10104000184B144AE3181A60656AA36A0620AD01BA
:10105000ED1800F011F9144900F0F8FA0100A802A7
:1010600000F0F4FA0021FFF75DFFC6E740069A01A1
:10107000800E17181A000300BAE7C0460080FCBFB4
:1010800008C0004000E0004000F00040CC0A002012
:101090002C10000001030000FEFF0000FFFF000015
:1010A000C0FF3F00303000004E0E0000F8B5DE46B5
:1010B0004E4645465746E0B505008B4618000A994E
:1010C000914600F0C3FA0A9B6C001E026419304B73
:1010D000A400E418636880469E4200D966602F1F12
:1010E000FBB29A46012B2FD9C0238022294FAD0095
:1010F0009B0179591201E3181A6000291BD14B4654
:1011000022685B015340E022134080225201A21862
:1011100013605346012B2FD9802380229B01E318B3
:1011200012011A60434666607B51F0BCBB46B24672
:10113000A946A046F8BD786900F088FA013043005E
:101140001B18033BFDD2DAE75B46012BCCD1C02351
:1011500003229B01E3181A60023AA3681A42FCD0EA
:101160004A46236852015A40E0231340802252012C
:10117000A218084F1360AD00584603232168414070
:101180000B40136001228240A3681A42FCD0C3E7DF
:10119000008000407C060020F0B5D6464F4646460B
:1011A000440098462418324BA400E41863688A4629
:1011B0009146C0B5FF2B02D880235B006360061FF9
:1011C000F6B2012E2FD9C02380222A4F85009B0121
:1011D00079591201E3181A6000291BD14B46226885
:1011E0005B015340E022134080225201A218136099
:1011F000012E30D9802380229B01E31812011A604E
:1012000080235B00636043467B51E0BCBA46B14635
:10121000A846F0BD786900F019FA013043001B18A8
:10122000033BFDD2DAE75346012BCCD1C023032286
:101230009B01E3181A60023AA3681A42FCD04A469E
:10124000236852015A40E023134080225201A21821
:10125000084F1360850050460323216841400B402E
:10126000136001228240A3681A42FCD0C2E7C04644
:10127000008000407C060020014B8000C058704771
:101280007C060020F0B5C646040000B523481600D1
:1012900098460D0000F0DAF90100300000F0D6F9B0
:1012A0004346069A1B04120313439C462368060018
:1012B000002B22DB1A4B1B48E218531E9A41802355
:1012C0005242120B9B011203D218174B1A60174B94
:1012D0001A60130001688B43FBD12122144B256057
:1012E000E318A6601A602268002AFCDA6246E2600F
:1012F00008221A6080BCB846F0BD3F232268134024
:10130000AB42D7D1A3681B051B0D8342D2D1EE227D
:10131000E368D20213406345CCD1EBE7001BB70072
:101320000040FDBF08C0004000E0004000F0004069
:10133000043000008023024A9B000B43D3627047B5
:1013400000800540002310B50100988A1B8B984748
:1013500010BDC046162310B5010018885B88984759
:1013600010BDC046F8B54746CE4680B50F1E18D012
:1013700014239946043304000025012698464B4661
:101380001888434621681B88984701C4431E98412A
:1013900001350640AF42F2D13000C0BCB946B0467C
:1013A000F8BD0126F8E7C046002370B504000D0023
:1013B000988A05491B8B984703000020002C01DB0D
:1013C0000130A0402900984755420000AA23064A50
:1013D0001B0113608D235B00D3600449044B19602B
:1013E0005368002BFCDA70470040024000B0FA005E
:1013F000006002407047C04610B50148FFF728F86A
:10140000602E001070B5074D074EB54209D200247A
:10141000013E761BB608013608CD01349847B44228
:10142000FAD170BDE02D00101C2E0010054B064AAD
:1014300006491A60064A074B1A6010000B68984369
:10144000FBD1704700E00040BFCDFBFE08C000406C
:10145000FE7F3C0000F00040044BDB6C002B03D10E
:101460008022034BD2021A607047C0460000115020
:101470004C201150044A054B1A60054A1368DB01E1
:101480008033FBD17047C046FFFFFF0100F00040F2
:1014900008C000404022034B9A675A671A67DA6611
:1014A0007047C04600F0014010B5FFF71DF810BDB1
:1014B00070B52749274E284D761AB4082200302CE3
:1014C00000D930222800920001F0F8F82F2C3BD8E8
:1014D00023002A3B214A052B1BD93020AE19710766
:1014E000001B2600CB0F002902DAA1006A50661CFF
:1014F000C01AE3189B004108EB18C900C9181A600C
:101500005A6008338B42FAD1012303421CD098431E
:101510008419A300EA50631C2F2C15D09B00EA50BD
:10152000A31C2E2C10D09B00EA50E31C2D2C0BD0BA
:101530009B00EA50231D2C2C06D09B00EA50631D13
:101540002B2C01D09B00EA50054B9D6070BDC0461E
:1015500000010010C001001000000020C1010010B7
:1015600000ED00E0002310B5294C82B0A367FFF71F
:101570002DFF0122274B1A60636C012BFCD1032243
:10158000254B1A60224A936B012BFCD10133009347
:101590000121224A22480433FFF774FE052301216A
:1015A0000093204A2048FFF76DFE0022022104200C
:1015B0001E4BFFF7F1FD0022012105201C4BFFF718
:1015C000EBFD0022002107201A4BFFF7E5FD00226A
:1015D00000210820174BFFF7DFFD8023DB0000937D
:1015E000002200210920134BFFF760FD0022104B61
:1015F00000210620FFF7D0FD0420FFF73DFE0E4935
:1016000000F024F801000020FFF794FE02B010BDA6
:10161000008000403CB0004030B00040002F6859CE
:1016200000800240008C864700C00240001BB700CB
:1016300040597307006CDC0240420F00014804214E
:10164000014B1847B002002065130010114A936F38
:101650009B0813D210665166002905D0FFE7FFE70B
:10166000FFE7516F106F704704B5002801D00020CC
:10167000C04301F095FB002104BDC046F0B5146ED7
:10168000556E576F166FFFF7E5FF1466556657677F
:101690001667F0BD000000D044464D4656465F46F2
:1016A000F0B47047F0BCA046A946B246BB467047AE
:1016B00048404140484018B41B4B5B68FC460193CE
:1016C00008BD04DF8B1B001018B4174B1B68FC46C9
:1016D000019308BD00DF951B00109446134A926FDA
:1016E000920809D2624618B40F4BDB68FC4601939E
:1016F00008BD0CDF4D1E00100C4AF0B5146E556E7F
:10170000576F166F6246FFF7EEFF084A146655667C
:1017100057671667F0BD18B4034B9B68FC460193EE
:1017200008BD08DFF11C001070040020000000D08C
:1017300010B54C00620D8023D218DB00D21A5B0575
:101740007E2A10DD9E3A13DACC17090349081943A3
:101750005242D140640001341532202A05DAD040CB
:101760000843604310BD002010BD0846604310BD13
:10177000C80FC018013810BD18B4044B1B6EFC46CE
:10178000019308BD60DF27210010000070040020D5
:10179000024A034B00B500F0D7F900BD182D4454A0
:1017A000FB2119408A0002D3920D092A08DA18B4E5
:1017B000064B1B6CFC46019308BD40DF5B2200100A
:1017C00000B5FFF7E5FF04BC9646F0E77004002083
:1017D000132370B51D78012D19D014DD1F48FFF7B4
:1017E000B9FD06001E48FFF7B5FD1E4C80223100F2
:1017F000200000F063FF022D2DD01B48FFF7A2FD53
:101800001A4B186070BD1A4B164CA364F5E7184BC1
:10181000144C23606360A360E36023616361A36190
:10182000E36123626362A362E36223636363A3638E
:10183000E36323646364A364E36423656365A3656E
:10184000E36523666366A366E36623676367A3674E
:10185000E367A364D1E7064BA364CEE753440000DB
:1018600053460000700400204C330000C4060020E2
:10187000591B0010F0B557464546DE464E46E0B5CA
:101880004D0089B0009201936B0D9C46129B07009E
:10189000002B02D01A0000231360A84DAC4577D06E
:1018A000009B019C019A99465400640D70D06246D9
:1018B000002A00D177E002000B00AC426AD0651E1E
:1018C000A846654566DC4E46069780270496802626
:1018D0000A03120B7F0317430797019F76033A030E
:1018E000120B1643CB0F059665455FD06246151B5C
:1018F000002B00D17DE0069E079F00237242BB4172
:1019000006920793002D00DC95E0059B012019113C
:101910004042FFF79BFE069E079F0023A346824698
:101920002C00994619E032009A4003923300AB40F4
:1019300008000293C917049A059B804600F00EFE2A
:10194000029E039F4B46C446AB409C44361A8F41CF
:10195000E146641B002C00DCB0E025000C2C00DD0F
:101960000C255246BB1153431D22521B1341013318
:1019700059102B00203BD6D5202332005B1BDA40C8
:1019800013003A00AA4094469C4463460393CDE773
:1019900000226B4B1000190009B0F0BCBB46B246E8
:1019A000A946A046F0BD00220023F3E7079CB442FD
:1019B0006FDD0498059900184941002B00D0A6E07E
:1019C000069B079C1B1A8C410693079444460123EF
:1019D000019A002A00DA5B42129A002A00D01360B2
:1019E000584A06980799121BFFF7C6FE02000B0023
:1019F000D0E7002D01DD330088E70499059A069DA4
:101A0000079EB2423BDC01D1A94238D8069D079E11
:101A1000049805992D1A8E412A00330052197341FA
:101A2000069507968B4247DC00D17AE004999142F3
:101A30003FD00123CCE70023069D079E0499059A19
:101A40006D18564106950796002E6FDA6D185641AF
:101A500006950796023B069D079E28003100401917
:101A60007141049D059E0A00B24208DC4CD00499E5
:101A70008842ADD105998A42AAD1DA07A8D5069D38
:101A8000079E0499059A6D1A9641013306950796AB
:101A90009EE7049C059D02940395069C079D039A6E
:101AA000954203D1029A944200D982E702000B00CA
:101AB00070E7059A9A42BCD10123E0E75C4604999D
:101AC000059A634606960797BA4219DC14D0069D1C
:101AD000079E0499059A6D1A964106950796B2429B
:101AE0002ADC25D0069D079E0499059A6D1A964119
:101AF000023306950796AEE7049A06998A42E6D91C
:101B0000079A002AA7DA97E7A842B0D9B7E7069B59
:101B1000079CC01AA14101234446069007915B42ED
:101B200056E7824200D881E70123A8E7013B92E70C
:101B3000049A06998A42D5D901338CE7FF07000041
:101B40000000F07F3304000010B5002482B0009440
:101B5000FFF790FE02B010BD07B5604601880A0A83
:101B60000230DF2AFAD1C9B2820804D30288408841
:101B70000004104300E00068014A5050039007BD84
:101B8000700400200FB403BC0CBCF0B50124E407C2
:101B9000634000E0F0B50C0DCF0F661E3605891BC3
:101BA000640503D3C943404200D30131640D03D01F
:101BB000661CF60A07D0E41B00207F00791C890709
:101BC0008912803C24031D0DDF0F6E1E36059B1B02
:101BD0006D0503D3DB43524200D301336D0D03D0B7
:101BE0006E1CF60A07D0ED1B00227F007B1C9B07B2
:101BF0009B12803D2D032F1B661B58D4A446202E1C
:101C000046DA20371400BC401D00BD40F24033418D
:101C10002A4380185941CB0F05D0C943C043002245
:101C200064425041514162464D0D28D10D0D07D1FE
:101C300000281FD0241940414941013A0D0DF9D027
:101C4000640006D3013000D30131002C01D14008DB
:101C50004000013A0BD4941CE40A04D1120511444B
:101C6000DB071944F0BDD907204B194300E0D90721
:101C70000020F0BD0029DDD1002CDBD1F0BD013208
:101C8000C6074008CD0728434908002EE1D0D9E710
:101C90003C2E29DA203E40371400BC4000D00124FD
:101CA000F24014431A00BB401C43D317ACE7AC46C8
:101CB000202F08DA20360400B4400D00B540F8406B
:101CC00039412843A5E73C2F0CDA203F4036040079
:101CD000B44000D00124F84004430800B1400C4354
:101CE000C117EAE710001900002494E70000F07F14
:101CF000F0B50C0D661E3605891BE60A6405640DF9
:101D000002D0651CED0A04D0002001210905803CA9
:101D10002403A4461C0D671E3F05DB1BE70A640570
:101D2000640D02D0651CED0A04D0002201231B05BE
:101D3000803C24037740644497B484B296B27443E1
:101D4000070C7E43150C6F4380B26843361802D3EC
:101D5000012000043F183004350C00197D418446F1
:101D600088B29AB250430C0C62431F0C7C438EB273
:101D70007E43921902D301263604A4191604170CC7
:101D80003618674101BC81B29AB25143040C6243D8
:101D90001B0C5C4380B25843121802D3012000048C
:101DA00024181004130C401863412D185E410020C4
:101DB000474106BC88B293B258430C0C6343120CE3
:101DC000544389B251435B1802D3012109046418BA
:101DD00019041A0C091862416D1856410020474138
:101DE00018BCF902720D1143F0026A0D1043ED02A6
:101DF0000A0D03D16D1940414941013B124E9B1B15
:101E00007600B3420ED26D0007D301300026714137
:101E10006646354301D1400840001B05C918E40758
:101E20002144F0BD0BDA013306D1013004D1013178
:101E30004F0D01D04908F2E7E1070020F0BD01365F
:101E400031050020EBE70000FF030000F0B51C0D9A
:101E5000671E3F05DB1BE70A6405640D02D0661CA4
:101E6000F60A04D0002201231B05803C2403D02560
:101E70002D060026F6432E661E096E66CE0FF61955
:101E8000B44649004F0D02D07E1CF60A03D0002054
:101E90000021403F3F033E1BB600B444013F7F0595
:101EA000C91B49082E6F013676089C02950D254303
:101EB0007543ED137543AD1301356D10F603761BB5
:101EC0000CB4CC02450D2C43A2B2B3B25A43270C3A
:101ED0007B43350C6F43A4B26C431B1902D301241E
:101EE00024043F191C041D0CA4187D4124196D41C4
:101EF000009A91B2ACB26143170C7C432B0C5F4348
:101F000092B25A43A41802D301221204BF18220429
:101F1000230C52187B41019C6C431B19520ED901B2
:101F20000A434401A01A81B2B2B2514303145A4386
:101F3000360C734387B27743D617D21900277E41F8
:101F400036049B191704160C7F185E417316ED18A2
:101F5000F301002680337541A90F06D16400690A98
:101F6000E8055B0A184309D22FE004229444803329
:101F70007541A90AA8059B0A184326D34041494147
:101F80002404009A019B0D005543641B4343E41A4B
:101F900095B286B27543170C7E43030C5F4392B231
:101FA0005A43B61802D301221204BF183204330C6C
:101FB00052197B4152429C41002C02D40022013034
:101FC00051414008CA071043490802B06246D7078A
:101FD0009210084BD218084B9A4203D21205891866
:101FE000C919F0BD0020002A01DC3900F0BD013321
:101FF0001905F5E7FD030000FE070000624618CA58
:1020000094465A46002A20DB04E0624618CA9446E9
:1020100000291ADAC01861415B463B415C46B44076
:102020005246FA40224344464D4662416B41904637
:1020300099462B46B3403D41FC401C4352465B460B
:10204000A241AB4192469B467047C01AA1414B4604
:102050003B414C46B4404246FA40224354465D461A
:1020600062416B4192469B462B46B3403D41FC404A
:102070001C4342464B46A241AB41904699467047AD
:10208000002200B500F00DF8CA179A4200D100BD39
:10209000D8430121C907414000BD000000220B15B3
:1020A0000AD410B5944600F079F81414013400DA1B
:1020B0000021CB17144C20470020002170476244B8
:1020C000343A0CD40C2A07DA040091409040524272
:1020D0002032D440214310BDD843D94310BD203213
:1020E00007D40C469440524220321141D040204344
:1020F00010BD0800C917203203D4524220321041CB
:1021000010BD1800190010BDBF20001000210A00EA
:10211000002104E000210A00C11704E0002200238E
:1021200006E0C0460022CB1758405940C01A9941DA
:1021300030B5184CA21A002903D1010010D000209C
:10214000203A4C1512D104D2013A001849414C0DE5
:10215000FAD3114CA24204D212058918DB07C91820
:1021600030BDD243520D00200021F5E703D4013ADF
:1021700000184941FBD50B324405C00A4D052843E0
:10218000C90A640003D0002460416141E1E7E0D363
:102190004408F8E732040000FE0700000A0DCC0FE7
:1021A000531E1B05C91A520503D3C943404200D32D
:1021B0000131520D03D0531CDB0A07D0121B002043
:1021C0006400611C89078912803A1203014BD21AFC
:1021D00070470000FF030000023225D40C2A1CDAED
:1021E0001125AD1A0B002B41083207350600EE40D1
:1021F000904091403143F0CC63431A1500235A417B
:10220000554356435743BF02F4127605761967418A
:10221000ED177F19801BB94170470C220020C917A8
:10222000490001310905DBE70902030E19430002E9
:102230005342203208D40C0019419440D840204326
:1022400000225041514170470800C917203B2032FD
:10225000F1D50020002100227047F0B5FFF71CFAED
:1022600000F006F800F046F8FFF71CFAF0BD000099
:1022700000B5FFF793FF30A4FFF7AEFF00242C4D0D
:102280002C4ED20702D3F6436D426641520004D26F
:10229000A246A346A846B14603E0A046A146AA46E8
:1022A000B3466EA4A44601271F26FFF7AEFE0137F2
:1022B000013E212FF9D100BD594684B28DB26C4345
:1022C000061475430B145E4382B25A43AD18EA17E5
:1022D00000D7D2431204B6182A042B0C12197341EA
:1022E000404649469D009B17920F2A4390419941D1
:1022F0003E2218E7494684B28DB26C4306147543FA
:102300000B145E4382B25A43AD18EA1700D7D2438A
:102310001204B6182A042B0C121973415046594660
:102320009D009B17920F2A43504159413E22FAE6E5
:10233000BB4DF09DC556F6367D5100001A61140064
:1023400085880A00FB211900F0B5FFF7A5F9404D7B
:102350000C002C4001D0AC4202D1090D090500202F
:102360001C002C4001D0AC4202D11B0D1B050022E9
:102370000026ED02002B04D502266B40694000D4F4
:1023800076424F1904D599420CDD0136694003E0CD
:10239000BB4207DA013E6B40070010003A000F0015
:1023A00019003B0040B4002A0FD1002B0AD05C007A
:1023B0006415013409D14C006415013402D101398E
:1023C000013B02E0002000212EE0FFF73FFD3E220E
:1023D000FFF757FE82468B460020002180460122EF
:1023E000920791461DA4A44601271F26FFF706FE6B
:1023F0000137013E212FF9D14A4653460C3A0124B8
:102400006407002752081B0005D493410019794145
:102410006408F7D104E05341001BB9416408F1D1CD
:10242000CE0749104008304340BC002E0AD0094C6A
:10243000094D01D5E443ED43F60701D10019694187
:10244000001969413D22FFF76EFEFFF72BF9F0BD41
:102450000000F07F8D305A88A8F64332694FBB6187
:102460000567AC1DB16E4096FCBAAD0F72DB0BABCD
:10247000A66EF50739BD9FE576ABFE034B6297BAB2
:102480005BD5FF01D694DBDDAAFAFF005DEAEE56CC
:1024900055FF7F006E77B7AAEAFF3F00BCBB5555DA
:1024A000FDFF1F00DEADAAAAFFFF0F006F5555F517
:1024B000FFFF0700ABAAAAFEFFFF03005555D5FF9B
:1024C000FFFF0100ABAAFAFFFFFF00005555FFFF19
:1024D000FF7F0000ABEAFFFFFF3F000055FDFFFF5D
:1024E000FF1F0000ABFFFFFFFF0F0000F5FFFFFF26
:1024F000FF070000FFFFFFFFFF03000000000000D8
:1025000000020000000000000001000000000000C8
:1025100080000000000000004000000000000000FB
:10252000200000000000000010000000000000007B
:10253000080000000000000004000000000000008F
:102540000200000000000000010000000000008008
:102550000000000000000040000000005143434321
:10256000C9188C46110C83B24B4310B4040C614360
:1025700092B280B2504362431C041B0C001910BC81
:1025800059411304120CC0185141614470470000B6
:10259000C10FC90700D54042002817D0F44603B444
:1025A0000B4B1B68984706BC81409E3840428031E7
:1025B00007D20B0607D04900490AC005104308435B
:1025C00060470130F8E7490A8902F5E770470000E3
:1025D000C4060020034BDB6FFC4618477CDF7D26DA
:1025E0000010000070050020132310B51C7813485C
:1025F000FEF7B0FE012C0BD004DD01008022104854
:1026000000F05CF80F48FEF79DFE0F4B186010BD00
:102610000B4C01005422200000F050F80B4B636576
:10262000A365E36523666366A366E3662367636762
:10263000A367E3672362E361E4E7C0465346000013
:10264000700500204C330000C40600205126001005
:1026500007B5604601880A0A0230DF2AFAD1C9B2FA
:10266000820804D3028840880004104300E0006818
:10267000014A5050039007BD70050020C30FDB07CF
:1026800041000A0E07D0FF2A08D00909054A891817
:102690001943400770471900002070470249C918C4
:1026A000FAE70000000000380000F07F0148042134
:1026B000014B1847C002002065130010014B5B68F6
:1026C00018470000C002002010B5002800D110BD3E
:1026D00000F020F9FBE7C04610B5094A0300146872
:1026E00084B0002C08D0012200910648524203A970
:1026F000A047012004B010BD00F056F90020F9E712
:10270000AC060020C926001000BEFDE77047C04699
:1027100010B5FFF7F9FFC04670B5FEF773FE074D21
:10272000074EB54209D20024013E761BB608013699
:1027300008CD01349847B442FAD170BD1C2E001068
:10274000202E0010030010B5080011001B689847E8
:1027500010BDC046F8B5437D07000D001600002BE4
:1027600038D0002A1ADD0B780A2B18D00020012E51
:1027700009D0012421006B5C01340A2B1AD0B44229
:10278000F8D1864203DD311A3B6828189847AD1905
:10279000013D2B780D3B5A4253413B75F8BD037DFB
:1027A000002BE3D102210E483B689847012EEED062
:1027B0000120DEE76B1E5B5C0D2BE0D0884203DA64
:1027C000091A3B6828189847054802213B68984732
:1027D0002000D4E70368110028009847DEE7C046D0
:1027E000542F0010F0B54646D6464F46C0B582B0CD
:1027F00090461C0006000D00FEF78AFB00232F4ABE
:1028000012184B41002B02DA01222D4B52422D4966
:1028100008008A4600F0DCFA81466B1C03D13000C8
:1028200000F08CFA0500002C27D0274F274B1C689E
:10283000002C18D04346002B21D1254B984602E0AE
:102840002469002C0FD02368002BF9D043461B6865
:10285000002B01D09C42F3D120002A003100B84760
:102860002469002CEFD14B46002B23D1280002B065
:10287000E0BCBA46B146A846F0BD164FD6E7144BA9
:10288000984602E02469002CEDD02368002BF9D093
:1028900043461B68002B01D0A342F3D12A0031002C
:1028A0002000B8476B460A222000DA71D91D093A88
:1028B000B847E7E7504600F083FAD7E740420F00F9
:1028C000FFFFFF7FE802002055270010A40600202C
:1028D000A8060020452700100A4A1368002B05D1DE
:1028E0000CE01A001B691032002B07D08342F8D18C
:1028F000002902D118691060196170470029FCD0C5
:102900001060FAE7A406002010B500F037F90120A6
:1029100010BDC046F0B5CE46474680B583B06B4685
:102920000600DD1D2870FEF7F3FA0023194A12187D
:102930004B41002B02DA0122174B52421749080083
:10294000894600F045FA164B80461C68002C14D0CE
:10295000144F02E02469002C0FD02368002BF9D01B
:102960003B68002B01D09C42F4D1200001222900B9
:10297000FFF7F0FE2469002CEFD14346002B05D170
:10298000300003B0C0BCB946B046F0BD484600F0C8
:1029900017FAF5E740420F00FFFFFF7FE802002033
:1029A000A4060020A806002070B5040000F0C6F9B7
:1029B00001230100050001222000FFF713FF084B4F
:1029C0001C68002C06D06368002B05D0984724694A
:1029D000002CF8D1280070BD2469002CF3D1F9E750
:1029E000A4060020F0B5002915DD0E4B0D271A684E
:1029F0000D4B0E4CD3185D426B41451820215B00F6
:102A00001E5F0478A64207D093691942FCD10130B9
:102A10001460A842F5D1F0BD93691942FCD117604A
:102A2000F2E7C046D00A00200080FCBFCC0A00209C
:102A30001F4B30B51B680D1E9C462ADD441E10211D
:102A400000201C4B1A689369194214D10130936914
:102A50001942FCD1136823548542F4D16346002BFC
:102A600007D050239363516B183B0B401249521807
:102A70001360280030BD6346002B07D050239363BA
:102A8000516B183B0B400C49521813600028F1D1D0
:102A90000BE0002B09D05022064B1B689A63596B40
:102AA000183A0A4004495B181A6003204042E1E7E3
:102AB00070060020D00A002034100000064B10B52C
:102AC0001B68002B06D00021044A12689163044A57
:102AD0001068984710BDC04670060020D00A00203C
:102AE000740600200822034B19688B691A42FCD136
:102AF0007047C046D00A002070B51A4E1A4B326893
:102B00000400D31858424341184D143318002B6861
:102B1000002C02D0002B0FD070BD002BFCD0060083
:102B200000219463FDF712FD30001149FDF74AFDC5
:102B3000104B2C601C60EFE72C6004000D4B1960FB
:102B40000B49FDF715FD01212000FDF7FFFC502288
:102B500033689A63596B183A0A4007495B181A6040
:102B6000DAE7C046D00A00200080FCBF70060020D3
:102B7000BD2A001074060020341000000D4B10B563
:102B80001B780D4B0D4C1B780D4B02211B780D4B08
:102B900000202360FDF726FC02210120FDF722FC26
:102BA000E12120684902FEF7F3F901210648FFF709
:102BB00093FE10BDA82F0010A42F0010D00A0020F3
:102BC000A02F001000400340D002002010B5114C8F
:102BD000114B22689A420FD1104B62689A420BD176
:102BE0000F4BA2689A4207D1012000230022002146
:102BF00040422360FEF7D8FB074B00212360074BC0
:102C000008486360064BA360FEF78CF9002323603D
:102C100010BDC046C0000020DE8116F0299B72BDA9
:102C20007ABE59D3400D0300F0B5454680463C4B73
:102C30004E4643445A1E9341DE4657468022E0B535
:102C40005B421B0C92021B049B18364A83B0136034
:102C5000354A8946354913601D000A689543FBD102
:102C60000620FEF709FB43465A6802231A400092E9
:102C70002F4A8026424413604B468246D90D5802A3
:102C800001920B0002000224760006E0924506D372
:102C9000023412184B41B44201D0002BF6D08027E9
:102CA0002602361B7F0002E0361B012F36D0310092
:102CB0005046BB46013FFEF7C9FC8145F4D2594658
:102CC00061433D0243461C611B68FF226B40802527
:102CD00012026D0113404544164A2B60009B42448A
:102CE000136002204346019C5B68206044462668CE
:102CF00007246640C83434402C600324034013602A
:102D00000D4B43441C6010605046FEF79FFC03B01F
:102D1000F0BCBB46B246A946A046F0BD2100D1E7B3
:102D20000000FCBF00E0004000F0004008C0004090
:102D3000043000000420000024200000030084462A
:102D40009B070BD00300032102E001330B4206D0A6
:102D50001A78002AF9D16246981A70470300196858
:102D60000C4A0D488A188A4302420FD15968094A11
:102D700004338A188A43024208D15968054A043349
:102D80008A188A430242F1D000E001331A78002AFF
:102D9000FBD1E0E7FFFEFEFE8080808000000000A7
:102DA00001B40248844601BC604700BF25020020F0
:102DB00001B40248844601BC604700BFD101002035
:102DC00001B40248844601BC604700BFA90100204D
:102DD00001B40248844601BC604700BF7501002071
:102DE0002D140010591400103D160010AD260010CF
:102DF000D1170010E925001065150010751400109A
:102E000095140010A914001045080010B11400100A
:102E1000B90B0010F513001005050010CD2B0010A4
:102E200048656C6C6F2C2044414321000A2A2A2AF1
:102E30002050414E4943202A2A2A0A0048617264E0
:102E40007761726520616C61726D20256420616C10
:102E5000726561647920636C61696D65640000006E
:102E600048617264206173736572740052656C65A9
:102E700061736500626F6F74325F7732357130381D
:102E800030000000322E332E300000007069636F76
:102E900000000000417564696F5F54696D65725F81
:102EA000496E746572727570745F4444530000001B
:102EB0005365702020322032303236005541525452
:102EC00020737464696E0000554152542073746419
:102ED0006F7574005541525420737464696E202FCD
:102EE000207374646F757400646F75626C65207212
:102EF00065736574202D3E20424F4F5453454C005E
:102F000006005250D3F075426C2E0010060052504D
:102F1000E182887F742E001006005250ABB36053DC
:102F2000842E001006005250BBFF3CB68C2E0010C1
:102F300006005250861C0302942E001006005250C8
:102F40005422A29DB02E001005005250DE65F46898
:102F5000CC3100100D0A00000600525053B4F4A109
:102F6000D42E0010080052501200000008005250E9
:102F7000921000000600525053B4F4A1E82E001045
:102F8000002F00100C2F0010182F0010242F0010FD
:102F9000302F00103C2F0010482F0010742F00100D
:0C2FA0006C2F0010642F0010582F001040
:102FAC0003000068EFF3108C72B60268002AFCD0A4
:102FBC00BFF35F8F04229A56002A0BDB002900D046
:102FCC000A6000201B68BFF35F8F00221A608CF32D
:102FDC0010887047D0221206126801201A71F1E78E
:102FEC00F0B51F00D023C6461B061B680400160054
:102FFC009846002500B50AE0BFF35F8F156081F39A
:10300C0010883000390000F077F8002818D12268B9
:10301C00EFF3108172B61368002BFCD0BFF35F8FF7
:10302C00237922687F2BE7D943462371BFF35F8F47
:10303C000023136081F31088012080BCB846F0BDDA
:10304C000020FAE770B582B001A9060014001D003B
:10305C00FFF7A6FF002807D1D0221206019B127899
:10306C005BB252B2934201D102B070BD22002B0070
:10307C003000FFF7B5FFF7E70268EFF3108172B687
:10308C001368002BFCD0BFF35F8FFF230371036821
:10309C00BFF35F8F00221A6081F3108840BF704726
:1030AC009446130010B5002A0BD05C000A000C19D2
:1030BC000221C3681942FCD0138802328360944207
:1030CC00F7D1C3685B0704D504228368C3681A422E
:1030DC00FBD11021C3681942FCD1C3685B0704D52E
:1030EC0004228368C3681A42FBD101230362604641
:1030FC0010BDC0467047C04601B40248844601BCAE
:10310C00604700BFC10D001074931804100000003C
:10311C0000000000000001000000000000000000A2
:10312C00000002000000000000000000000003008E
:10313C0000000000000000000000FF000000000084
:10314C0001B5486801318E4600477046093801497F
:10315C00884701BD81070010FFFFFFFFFFFFFF7FC6
:10316C000000000000000000000000000000000053
:10317C0000000000F0020020000000000000000031
:10318C00503300004C330000543300005233000025
:10319C004D5300004D4300005334000043340000F5
:1031AC00E5290010E52A0010312A0010F92A001038
:1031BC000000000000010000000000000000000002
:04000005100001E9FD
:00000001FF
